{
  "_format": "hh-sol-artifact-1",
  "contractName": "EvidenceRegistry",
  "sourceName": "contracts/EvidenceRegistry.sol",
  "abi": [
    {
      "anonymous": false,
      "inputs": [
        {
          "indexed": true,
          "internalType": "bytes32",
          "name": "hash",
          "type": "bytes32"
        },
        {
          "indexed": true,
          "internalType": "address",
          "name": "submitter",
          "type": "address"
        },
        {
          "indexed": false,
          "internalType": "uint256",
          "name": "timestamp",
          "type": "uint256"
        }
      ],
      "name": "HashStored",
      "type": "event"
    },
    {
      "inputs": [
        {
          "internalType": "bytes32",
          "name": "hash",
          "type": "bytes32"
        }
      ],
      "name": "storeHash",
      "outputs": [],
      "stateMutability": "nonpayable",
      "type": "function"
    },
    {
      "inputs": [
        {
          "internalType": "bytes32",
          "name": "hash",
          "type": "bytes32"
        }
      ],
      "name": "verifyHash",
      "outputs": [
        {
          "internalType": "bool",
          "name": "exists",
          "type": "bool"
        },
        {
          "internalType": "address",
          "name": "submitter",
          "type": "address"
        },
        {
          "internalType": "uint256",
          "name": "timestamp",
          "type": "uint256"
        }
      ],
      "stateMutability": "view",
      "type": "function"
    }
  ],
  "bytecode": "0x608060405234801561001057600080fd5b50610548806100206000396000f3fe608060405234801561001057600080fd5b50600436106100365760003560e01c80637fe888851461003b578063ef020f4a14610057575b600080fd5b61005560048036038101906100509190610335565b610089565b005b610071600480360381019061006c9190610335565b61023d565b604051610080939291906103d7565b60405180910390f35b6000801b81036100ce576040517f08c379a00000000000000000000000000000000000000000000000000000000081526004016100c59061046b565b60405180910390fd5b60008082815260200190815260200160002060020160009054906101000a900460ff1615610131576040517f08c379a0000000000000000000000000000000000000000000000000000000008152600401610128906104d7565b60405180910390fd5b60405180606001604052803373ffffffffffffffffffffffffffffffffffffffff1681526020014281526020016001151581525060008083815260200190815260200160002060008201518160000160006101000a81548173ffffffffffffffffffffffffffffffffffffffff021916908373ffffffffffffffffffffffffffffffffffffffff1602179055506020820151816001015560408201518160020160006101000a81548160ff0219169083151502179055509050503373ffffffffffffffffffffffffffffffffffffffff16817fe6fbaeaaa7640a072067c43cb00e4961b93178830abf014121ece15cbd7314354260405161023291906104f7565b60405180910390a350565b6000806000806000808681526020019081526020016000206040518060600160405290816000820160009054906101000a900473ffffffffffffffffffffffffffffffffffffffff1673ffffffffffffffffffffffffffffffffffffffff1673ffffffffffffffffffffffffffffffffffffffff168152602001600182015481526020016002820160009054906101000a900460ff1615151515815250509050806040015181600001518260200151935093509350509193909250565b600080fd5b6000819050919050565b610312816102ff565b811461031d57600080fd5b50565b60008135905061032f81610309565b92915050565b60006020828403121561034b5761034a6102fa565b5b600061035984828501610320565b91505092915050565b60008115159050919050565b61037781610362565b82525050565b600073ffffffffffffffffffffffffffffffffffffffff82169050919050565b60006103a88261037d565b9050919050565b6103b88161039d565b82525050565b6000819050919050565b6103d1816103be565b82525050565b60006060820190506103ec600083018661036e565b6103f960208301856103af565b61040660408301846103c8565b949350505050565b600082825260208201905092915050565b7f456d707479206861736800000000000000000000000000000000000000000000600082015250565b6000610455600a8361040e565b91506104608261041f565b602082019050919050565b6000602082019050818103600083015261048481610448565b9050919050565b7f4861736820616c72656164792072656769737465726564000000000000000000600082015250565b60006104c160178361040e565b91506104cc8261048b565b602082019050919050565b600060208201905081810360008301526104f0816104b4565b9050919050565b600060208201905061050c60008301846103c8565b9291505056fea2646970667358221220bf6cea230e10d2561a2159a8746d2c08c065ea2f17d1d8f5300b4333b3d0405864736f6c63430008130033",
  "linkReferences": {},
  "deployedLinkReferences": {}
}